{
  "address": "0xB84184D332a5fe85FA94987a0D0Fb6B0AdB0C48c",
  "abi": [
    {
      "inputs": [
        {
          "internalType": "address",
          "name": "vrfCoordinatorV2",
          "type": "address"
        },
        {
          "internalType": "uint256",
          "name": "entranceFee",
          "type": "uint256"
        },
        {
          "internalType": "bytes32",
          "name": "gasLane",
          "type": "bytes32"
        },
        {
          "internalType": "uint64",
          "name": "subscriptionId",
          "type": "uint64"
        },
        {
          "internalType": "uint32",
          "name": "callbackGasLimit",
          "type": "uint32"
        },
        {
          "internalType": "uint256",
          "name": "updateInterval",
          "type": "uint256"
        }
      ],
      "stateMutability": "nonpayable",
      "type": "constructor"
    },
    {
      "inputs": [
        {
          "internalType": "address",
          "name": "have",
          "type": "address"
        },
        {
          "internalType": "address",
          "name": "want",
          "type": "address"
        }
      ],
      "name": "OnlyCoordinatorCanFulfill",
      "type": "error"
    },
    {
      "inputs": [],
      "name": "Raffle__NotEnoughEth",
      "type": "error"
    },
    {
      "inputs": [],
      "name": "Raffle__NotOpen",
      "type": "error"
    },
    {
      "inputs": [],
      "name": "Raffle__TransferFailed",
      "type": "error"
    },
    {
      "inputs": [
        {
          "internalType": "uint256",
          "name": "currentBalance",
          "type": "uint256"
        },
        {
          "internalType": "uint256",
          "name": "numPlayers",
          "type": "uint256"
        },
        {
          "internalType": "uint256",
          "name": "raffleState",
          "type": "uint256"
        }
      ],
      "name": "Raffle__UpkeepNotNeeded",
      "type": "error"
    },
    {
      "anonymous": false,
      "inputs": [
        {
          "indexed": true,
          "internalType": "address",
          "name": "player",
          "type": "address"
        }
      ],
      "name": "RaffleEnter",
      "type": "event"
    },
    {
      "anonymous": false,
      "inputs": [
        {
          "indexed": true,
          "internalType": "uint256",
          "name": "requestId",
          "type": "uint256"
        }
      ],
      "name": "RequestedRaffleWinner",
      "type": "event"
    },
    {
      "anonymous": false,
      "inputs": [
        {
          "indexed": true,
          "internalType": "address",
          "name": "winner",
          "type": "address"
        }
      ],
      "name": "WinnerPicked",
      "type": "event"
    },
    {
      "inputs": [
        {
          "internalType": "bytes",
          "name": "",
          "type": "bytes"
        }
      ],
      "name": "checkUpkeep",
      "outputs": [
        {
          "internalType": "bool",
          "name": "upkeepNeeded",
          "type": "bool"
        },
        {
          "internalType": "bytes",
          "name": "",
          "type": "bytes"
        }
      ],
      "stateMutability": "nonpayable",
      "type": "function"
    },
    {
      "inputs": [],
      "name": "enterRaffle",
      "outputs": [],
      "stateMutability": "payable",
      "type": "function"
    },
    {
      "inputs": [],
      "name": "getEntranceFee",
      "outputs": [
        {
          "internalType": "uint256",
          "name": "",
          "type": "uint256"
        }
      ],
      "stateMutability": "view",
      "type": "function"
    },
    {
      "inputs": [],
      "name": "getInterval",
      "outputs": [
        {
          "internalType": "uint256",
          "name": "",
          "type": "uint256"
        }
      ],
      "stateMutability": "view",
      "type": "function"
    },
    {
      "inputs": [],
      "name": "getLatestTimeStamp",
      "outputs": [
        {
          "internalType": "uint256",
          "name": "",
          "type": "uint256"
        }
      ],
      "stateMutability": "view",
      "type": "function"
    },
    {
      "inputs": [],
      "name": "getNumWords",
      "outputs": [
        {
          "internalType": "uint256",
          "name": "",
          "type": "uint256"
        }
      ],
      "stateMutability": "pure",
      "type": "function"
    },
    {
      "inputs": [],
      "name": "getNumberOfPlayers",
      "outputs": [
        {
          "internalType": "uint256",
          "name": "",
          "type": "uint256"
        }
      ],
      "stateMutability": "view",
      "type": "function"
    },
    {
      "inputs": [
        {
          "internalType": "uint256",
          "name": "index",
          "type": "uint256"
        }
      ],
      "name": "getPlayer",
      "outputs": [
        {
          "internalType": "address",
          "name": "",
          "type": "address"
        }
      ],
      "stateMutability": "view",
      "type": "function"
    },
    {
      "inputs": [],
      "name": "getRaffleState",
      "outputs": [
        {
          "internalType": "enum Raffle.RaffleState",
          "name": "",
          "type": "uint8"
        }
      ],
      "stateMutability": "view",
      "type": "function"
    },
    {
      "inputs": [],
      "name": "getRecentWinner",
      "outputs": [
        {
          "internalType": "address",
          "name": "",
          "type": "address"
        }
      ],
      "stateMutability": "view",
      "type": "function"
    },
    {
      "inputs": [],
      "name": "getRequestConfirmations",
      "outputs": [
        {
          "internalType": "uint256",
          "name": "",
          "type": "uint256"
        }
      ],
      "stateMutability": "pure",
      "type": "function"
    },
    {
      "inputs": [],
      "name": "getVrfCoordinator",
      "outputs": [
        {
          "internalType": "contract VRFCoordinatorV2Interface",
          "name": "",
          "type": "address"
        }
      ],
      "stateMutability": "view",
      "type": "function"
    },
    {
      "inputs": [],
      "name": "i_interval",
      "outputs": [
        {
          "internalType": "uint256",
          "name": "",
          "type": "uint256"
        }
      ],
      "stateMutability": "view",
      "type": "function"
    },
    {
      "inputs": [
        {
          "internalType": "bytes",
          "name": "",
          "type": "bytes"
        }
      ],
      "name": "performUpkeep",
      "outputs": [],
      "stateMutability": "nonpayable",
      "type": "function"
    },
    {
      "inputs": [
        {
          "internalType": "uint256",
          "name": "requestId",
          "type": "uint256"
        },
        {
          "internalType": "uint256[]",
          "name": "randomWords",
          "type": "uint256[]"
        }
      ],
      "name": "rawFulfillRandomWords",
      "outputs": [],
      "stateMutability": "nonpayable",
      "type": "function"
    },
    {
      "inputs": [],
      "name": "s_lastTimeStamp",
      "outputs": [
        {
          "internalType": "uint256",
          "name": "",
          "type": "uint256"
        }
      ],
      "stateMutability": "view",
      "type": "function"
    }
  ],
  "transactionHash": "0x8368e2af0bbb2eb48943600ecdcf11911369311000949fed8677cdb09d9673d1",
  "args": [
    "0x6168499c0cFfCaCD319c818142124B7A15E857ab",
    "10000000000000000",
    "0xd89b2bf150e3b9e13446986e571fb9cab24b13cea0a43ea20a6049a85cc807cc",
    "6383",
    "500000",
    "30"
  ],
  "numDeployments": 1,
  "solcInputHash": "7bb6f26ae12f41b2812831b15ddd814d",
  "bytecode": "0x6101606040523480156200001257600080fd5b50604051620019fc380380620019fc8339818101604052810190620000389190620002a0565b858073ffffffffffffffffffffffffffffffffffffffff1660808173ffffffffffffffffffffffffffffffffffffffff1660601b81525050508460a081815250508573ffffffffffffffffffffffffffffffffffffffff1660c08173ffffffffffffffffffffffffffffffffffffffff1660601b815250508360e081815250508267ffffffffffffffff166101008167ffffffffffffffff1660c01b815250508163ffffffff166101208163ffffffff1660e01b815250506000600160146101000a81548160ff021916908360018111156200011957620001186200033c565b5b0217905550806101408181525050426002819055505050505050506200036b565b600080fd5b600073ffffffffffffffffffffffffffffffffffffffff82169050919050565b60006200016c826200013f565b9050919050565b6200017e816200015f565b81146200018a57600080fd5b50565b6000815190506200019e8162000173565b92915050565b6000819050919050565b620001b981620001a4565b8114620001c557600080fd5b50565b600081519050620001d981620001ae565b92915050565b6000819050919050565b620001f481620001df565b81146200020057600080fd5b50565b6000815190506200021481620001e9565b92915050565b600067ffffffffffffffff82169050919050565b62000239816200021a565b81146200024557600080fd5b50565b60008151905062000259816200022e565b92915050565b600063ffffffff82169050919050565b6200027a816200025f565b81146200028657600080fd5b50565b6000815190506200029a816200026f565b92915050565b60008060008060008060c08789031215620002c057620002bf6200013a565b5b6000620002d089828a016200018d565b9650506020620002e389828a01620001c8565b9550506040620002f689828a0162000203565b94505060606200030989828a0162000248565b93505060806200031c89828a0162000289565b92505060a06200032f89828a01620001c8565b9150509295509295509295565b7f4e487b7100000000000000000000000000000000000000000000000000000000600052602160045260246000fd5b60805160601c60a05160c05160601c60e0516101005160c01c6101205160e01c61014051611600620003fc600039600081816106d9015281816108d20152818161094b01526109a6015260006107c10152600061079e0152600061077d0152600081816103d401526107410152600081816103ac01526104d1015260008181610411015261046501526116006000f3fe6080604052600436106100f35760003560e01c8063473f1ddc1161008a5780636e04ff0d116100595780636e04ff0d146102d757806391ad27b414610315578063e55ae4e814610340578063fd6673f51461037d576100f3565b8063473f1ddc1461022b57806353a2c19a146102565780635f1b0fd8146102815780636919207d146102ac576100f3565b80632cfcc539116100c65780632cfcc539146101a2578063320229eb146101ac57806334854043146101d75780634585e33b14610202576100f3565b806309bc33a7146100f85780630cb4a29d14610123578063115cbaf51461014e5780631fe543e314610179575b600080fd5b34801561010457600080fd5b5061010d6103a8565b60405161011a9190610d07565b60405180910390f35b34801561012f57600080fd5b506101386103d0565b6040516101459190610da1565b60405180910390f35b34801561015a57600080fd5b506101636103f8565b6040516101709190610e33565b60405180910390f35b34801561018557600080fd5b506101a0600480360381019061019b9190610fe7565b61040f565b005b6101aa6104cf565b005b3480156101b857600080fd5b506101c161063e565b6040516101ce9190610d07565b60405180910390f35b3480156101e357600080fd5b506101ec610648565b6040516101f99190610d07565b60405180910390f35b34801561020e57600080fd5b506102296004803603810190610224919061109e565b61064e565b005b34801561023757600080fd5b5061024061088a565b60405161024d919061110c565b60405180910390f35b34801561026257600080fd5b5061026b6108b4565b6040516102789190610d07565b60405180910390f35b34801561028d57600080fd5b506102966108c3565b6040516102a39190610d07565b60405180910390f35b3480156102b857600080fd5b506102c16108d0565b6040516102ce9190610d07565b60405180910390f35b3480156102e357600080fd5b506102fe60048036038101906102f991906111dc565b6108f4565b60405161030c9291906112c8565b60405180910390f35b34801561032157600080fd5b5061032a6109a2565b6040516103379190610d07565b60405180910390f35b34801561034c57600080fd5b50610367600480360381019061036291906112f8565b6109ca565b604051610374919061110c565b60405180910390f35b34801561038957600080fd5b50610392610a11565b60405161039f9190610d07565b60405180910390f35b60007f0000000000000000000000000000000000000000000000000000000000000000905090565b60007f0000000000000000000000000000000000000000000000000000000000000000905090565b6000600160149054906101000a900460ff16905090565b7f000000000000000000000000000000000000000000000000000000000000000073ffffffffffffffffffffffffffffffffffffffff163373ffffffffffffffffffffffffffffffffffffffff16146104c157337f00000000000000000000000000000000000000000000000000000000000000006040517f1cf993f40000000000000000000000000000000000000000000000000000000081526004016104b8929190611325565b60405180910390fd5b6104cb8282610a1d565b5050565b7f0000000000000000000000000000000000000000000000000000000000000000341015610529576040517fa10e43c700000000000000000000000000000000000000000000000000000000815260040160405180910390fd5b6000600181111561053d5761053c610dbc565b5b600160149054906101000a900460ff16600181111561055f5761055e610dbc565b5b14610596576040517f1425571c00000000000000000000000000000000000000000000000000000000815260040160405180910390fd5b6000339080600181540180825580915050600190039060005260206000200160009091909190916101000a81548173ffffffffffffffffffffffffffffffffffffffff021916908373ffffffffffffffffffffffffffffffffffffffff1602179055503373ffffffffffffffffffffffffffffffffffffffff167f0805e1d667bddb8a95f0f09880cf94f403fb596ce79928d9f29b74203ba284d460405160405180910390a2565b6000600254905090565b60025481565b6000610668604051806020016040528060008152506108f4565b509050806106d75747600080549050600160149054906101000a900460ff16600181111561069957610698610dbc565b5b6040517f584327aa0000000000000000000000000000000000000000000000000000000081526004016106ce9392919061134e565b60405180910390fd5b7f00000000000000000000000000000000000000000000000000000000000000006002544261070691906113b4565b1115610885574260028190555060018060146101000a81548160ff0219169083600181111561073857610737610dbc565b5b021790555060007f000000000000000000000000000000000000000000000000000000000000000073ffffffffffffffffffffffffffffffffffffffff16635d3b1d307f00000000000000000000000000000000000000000000000000000000000000007f000000000000000000000000000000000000000000000000000000000000000060037f000000000000000000000000000000000000000000000000000000000000000060016040518663ffffffff1660e01b8152600401610802959493929190611460565b602060405180830381600087803b15801561081c57600080fd5b505af1158015610830573d6000803e3d6000fd5b505050506040513d601f19601f8201168201806040525081019061085491906114c8565b9050807fcd6e45c8998311cab7e9d4385596cac867e20a0587194b954fa3a731c93ce78b60405160405180910390a2505b505050565b6000600160009054906101000a900473ffffffffffffffffffffffffffffffffffffffff16905090565b6000600163ffffffff16905090565b6000600361ffff16905090565b7f000000000000000000000000000000000000000000000000000000000000000081565b60006060600080471415905060008060008054905014159050600080600181111561092257610921610dbc565b5b600160149054906101000a900460ff16600181111561094457610943610dbc565b5b14905060007f00000000000000000000000000000000000000000000000000000000000000006002544261097891906113b4565b1190508380156109855750825b801561098e5750815b80156109975750805b955050505050915091565b60007f0000000000000000000000000000000000000000000000000000000000000000905090565b60008082815481106109df576109de6114f5565b5b9060005260206000200160009054906101000a900473ffffffffffffffffffffffffffffffffffffffff169050919050565b60008080549050905090565b6000808054905082600081518110610a3857610a376114f5565b5b6020026020010151610a4a9190611553565b90506000808281548110610a6157610a606114f5565b5b9060005260206000200160009054906101000a900473ffffffffffffffffffffffffffffffffffffffff16905080600160006101000a81548173ffffffffffffffffffffffffffffffffffffffff021916908373ffffffffffffffffffffffffffffffffffffffff1602179055506000600160146101000a81548160ff02191690836001811115610af557610af4610dbc565b5b0217905550600067ffffffffffffffff811115610b1557610b14610ea4565b5b604051908082528060200260200182016040528015610b435781602001602082028036833780820191505090505b5060009080519060200190610b59929190610c47565b5060008173ffffffffffffffffffffffffffffffffffffffff1647604051610b80906115b5565b60006040518083038185875af1925050503d8060008114610bbd576040519150601f19603f3d011682016040523d82523d6000602084013e610bc2565b606091505b5050905080610bfd576040517fa1d04b3900000000000000000000000000000000000000000000000000000000815260040160405180910390fd5b8173ffffffffffffffffffffffffffffffffffffffff167f5b690ec4a06fe979403046eaeea5b3ce38524683c3001f662c8b5a829632f7df60405160405180910390a25050505050565b828054828255906000526020600020908101928215610cc0579160200282015b82811115610cbf5782518260006101000a81548173ffffffffffffffffffffffffffffffffffffffff021916908373ffffffffffffffffffffffffffffffffffffffff16021790555091602001919060010190610c67565b5b509050610ccd9190610cd1565b5090565b5b80821115610cea576000816000905550600101610cd2565b5090565b6000819050919050565b610d0181610cee565b82525050565b6000602082019050610d1c6000830184610cf8565b92915050565b600073ffffffffffffffffffffffffffffffffffffffff82169050919050565b6000819050919050565b6000610d67610d62610d5d84610d22565b610d42565b610d22565b9050919050565b6000610d7982610d4c565b9050919050565b6000610d8b82610d6e565b9050919050565b610d9b81610d80565b82525050565b6000602082019050610db66000830184610d92565b92915050565b7f4e487b7100000000000000000000000000000000000000000000000000000000600052602160045260246000fd5b60028110610dfc57610dfb610dbc565b5b50565b6000819050610e0d82610deb565b919050565b6000610e1d82610dff565b9050919050565b610e2d81610e12565b82525050565b6000602082019050610e486000830184610e24565b92915050565b6000604051905090565b600080fd5b600080fd5b610e6b81610cee565b8114610e7657600080fd5b50565b600081359050610e8881610e62565b92915050565b600080fd5b6000601f19601f8301169050919050565b7f4e487b7100000000000000000000000000000000000000000000000000000000600052604160045260246000fd5b610edc82610e93565b810181811067ffffffffffffffff82111715610efb57610efa610ea4565b5b80604052505050565b6000610f0e610e4e565b9050610f1a8282610ed3565b919050565b600067ffffffffffffffff821115610f3a57610f39610ea4565b5b602082029050602081019050919050565b600080fd5b6000610f63610f5e84610f1f565b610f04565b90508083825260208201905060208402830185811115610f8657610f85610f4b565b5b835b81811015610faf5780610f9b8882610e79565b845260208401935050602081019050610f88565b5050509392505050565b600082601f830112610fce57610fcd610e8e565b5b8135610fde848260208601610f50565b91505092915050565b60008060408385031215610ffe57610ffd610e58565b5b600061100c85828601610e79565b925050602083013567ffffffffffffffff81111561102d5761102c610e5d565b5b61103985828601610fb9565b9150509250929050565b600080fd5b60008083601f84011261105e5761105d610e8e565b5b8235905067ffffffffffffffff81111561107b5761107a611043565b5b60208301915083600182028301111561109757611096610f4b565b5b9250929050565b600080602083850312156110b5576110b4610e58565b5b600083013567ffffffffffffffff8111156110d3576110d2610e5d565b5b6110df85828601611048565b92509250509250929050565b60006110f682610d22565b9050919050565b611106816110eb565b82525050565b600060208201905061112160008301846110fd565b92915050565b600080fd5b600067ffffffffffffffff82111561114757611146610ea4565b5b61115082610e93565b9050602081019050919050565b82818337600083830152505050565b600061117f61117a8461112c565b610f04565b90508281526020810184848401111561119b5761119a611127565b5b6111a684828561115d565b509392505050565b600082601f8301126111c3576111c2610e8e565b5b81356111d384826020860161116c565b91505092915050565b6000602082840312156111f2576111f1610e58565b5b600082013567ffffffffffffffff8111156112105761120f610e5d565b5b61121c848285016111ae565b91505092915050565b60008115159050919050565b61123a81611225565b82525050565b600081519050919050565b600082825260208201905092915050565b60005b8381101561127a57808201518184015260208101905061125f565b83811115611289576000848401525b50505050565b600061129a82611240565b6112a4818561124b565b93506112b481856020860161125c565b6112bd81610e93565b840191505092915050565b60006040820190506112dd6000830185611231565b81810360208301526112ef818461128f565b90509392505050565b60006020828403121561130e5761130d610e58565b5b600061131c84828501610e79565b91505092915050565b600060408201905061133a60008301856110fd565b61134760208301846110fd565b9392505050565b60006060820190506113636000830186610cf8565b6113706020830185610cf8565b61137d6040830184610cf8565b949350505050565b7f4e487b7100000000000000000000000000000000000000000000000000000000600052601160045260246000fd5b60006113bf82610cee565b91506113ca83610cee565b9250828210156113dd576113dc611385565b5b828203905092915050565b6000819050919050565b6113fb816113e8565b82525050565b600067ffffffffffffffff82169050919050565b61141e81611401565b82525050565b600061ffff82169050919050565b61143b81611424565b82525050565b600063ffffffff82169050919050565b61145a81611441565b82525050565b600060a08201905061147560008301886113f2565b6114826020830187611415565b61148f6040830186611432565b61149c6060830185611451565b6114a96080830184611451565b9695505050505050565b6000815190506114c281610e62565b92915050565b6000602082840312156114de576114dd610e58565b5b60006114ec848285016114b3565b91505092915050565b7f4e487b7100000000000000000000000000000000000000000000000000000000600052603260045260246000fd5b7f4e487b7100000000000000000000000000000000000000000000000000000000600052601260045260246000fd5b600061155e82610cee565b915061156983610cee565b92508261157957611578611524565b5b828206905092915050565b600081905092915050565b50565b600061159f600083611584565b91506115aa8261158f565b600082019050919050565b60006115c082611592565b915081905091905056fea26469706673582212200194bdf7f95d7b28691ebbe92c0d77c249ec2d697bfaa99326b42ebb5cccf8ad64736f6c63430008080033",
  "devdoc": {
    "kind": "dev",
    "methods": {
      "checkUpkeep(bytes)": {
        "details": "this is the function that the Chainlink Keeper nodes call they look for the `upkeepNeeded` to return true The following should be true in order to return true: 1. Our time interval should have passed 2. The lottery should have at least 1 player, and have some ETH 3. Our subscription is funded with LINK 4. The lottery should be in an \"open\" state"
      }
    },
    "version": 1
  },
  "userdoc": {
    "kind": "user",
    "methods": {},
    "version": 1
  },
  "storageLayout": {
    "storage": [
      {
        "astId": 235,
        "contract": "contracts/Raffle.sol:Raffle",
        "label": "s_players",
        "offset": 0,
        "slot": "0",
        "type": "t_array(t_address_payable)dyn_storage"
      },
      {
        "astId": 252,
        "contract": "contracts/Raffle.sol:Raffle",
        "label": "s_recentWinner",
        "offset": 0,
        "slot": "1",
        "type": "t_address"
      },
      {
        "astId": 255,
        "contract": "contracts/Raffle.sol:Raffle",
        "label": "s_raffleState",
        "offset": 20,
        "slot": "1",
        "type": "t_enum(RaffleState)230"
      },
      {
        "astId": 257,
        "contract": "contracts/Raffle.sol:Raffle",
        "label": "s_lastTimeStamp",
        "offset": 0,
        "slot": "2",
        "type": "t_uint256"
      }
    ],
    "types": {
      "t_address": {
        "encoding": "inplace",
        "label": "address",
        "numberOfBytes": "20"
      },
      "t_address_payable": {
        "encoding": "inplace",
        "label": "address payable",
        "numberOfBytes": "20"
      },
      "t_array(t_address_payable)dyn_storage": {
        "base": "t_address_payable",
        "encoding": "dynamic_array",
        "label": "address payable[]",
        "numberOfBytes": "32"
      },
      "t_enum(RaffleState)230": {
        "encoding": "inplace",
        "label": "enum Raffle.RaffleState",
        "numberOfBytes": "1"
      },
      "t_uint256": {
        "encoding": "inplace",
        "label": "uint256",
        "numberOfBytes": "32"
      }
    }
  }
}